:1000000001308A0040290000831685108312851074
:1000100083160510831205147B298316051083129D
:100020000514831605108312051008004F08083CBC
:1000300003191E28D000CE0DD00B1B288316861660
:100040000613861383128613831606128312061272
:100050004F08D000CE1F0613CE1B0617CE0D8617F5
:10006000F80D861E7810861A78148613D00B2A286D
:10007000061608000D20E230CE000830CF00162012
:100080000D207C2983168510831285108316051098
:10009000831205102030CE000830CF0016203B30F0
:1000A000CE000830CF0016200D200730F700F70BE8
:1000B00057285A282130CE000830CF0016200130B2
:1000C000CE000830CF0016200D202230CE000830A0
:1000D000CF0016200130CE000830CF0016200D20B2
:1000E0002330CE000830CF0016200330CE00083079
:1000F000CF0016200D202630CE000830CF0016206D
:100100000730CE000830CF0016200D203130CE0051
:100110000830CF0016201030CE000830CF00162057
:100120000D202530CE000830CF0016200230CE0042
:100130000830CF0016200D202A30CE000830CF0026
:1001400016204808CE000830CF0016204908CE00FF
:100150000830CF0016204A08CE000830CF00162005
:100160004B08CE000830CF0016204C08CE000830D7
:10017000CF0016200D202030CE000830CF001620F2
:100180003B30CE000830CF0016200D202730CE00A7
:100190000830CF001620CF30CE000830CF00162018
:1001A0008316051083120514831685108312851497
:1001B0008429C8010D201730CE000830CF0016204A
:1001C000CE010830CF0016207808C8000D20273057
:1001D000CE000830CF001620CF30CE000830CF0040
:1001E00016208316051083120514481CFB280030C6
:1001F000F800FD28FD280130F8008F290130C902E0
:10020000031C0F29493084008313000803190F29A8
:100210000230F700F70B0A290D29800B08299729CE
:1002200083160510831205106130CE000830CF0010
:100230001620C80148080F3C031C2A292030480713
:1002400084008313CE010830CF0016207808800088
:10025000C80A1A290D20E230CE000830CF0016203F
:100260000D202730CE000830CF001620CF30CE0032
:100270000830CF00162083160510831205149A2922
:1002800003081F39830083168E15861606138613FE
:100290008312861383160612831206124010C701BA
:1002A00007309F008313A001A101A201A301A401B3
:1002B000A501A601A701A801A901AA01AB01AC01F2
:1002C000AD01AE01AF01B001B101B201B301B401A2
:1002D000B501B601B701B801B901BA01BB01BC0152
:1002E000BD01BE01BF01C101C20183168E112330C1
:1002F0008600831204283A283130C800E430C9004F
:10030000CA00CB00CC0042282730F700F70B862923
:10031000892983160614831206189A29D928F80801
:1003200003199A290230C8009630C900FE28C80B6C
:10033000942910292108413C031DA3298316861105
:1003400083128615A7298316861183128611C70A80
:100350004708183C0318B229C70183160611043058
:10036000831286064F30F700F70BB429B729892985
:02037000630028
:02400E00103F61
:00000001FF
;PIC16F628A
;CRC=A42D  CREATED="24-ago.-20 21:25"
